:020000040800F2
:10800000D00201209981000811E0000825CC000869
:10801000CDDF0008B99500083556010800000000C2
:108020000000000000000000000000005DFE0008ED
:1080300031A5000800000000A1EC0008290A010891
:10804000B3810008B3810008B3810008B381000840
:10805000B3810008B3810008B3810008B381000830
:10806000B3810008B3810008B3810008B381000820
:10807000B3810008B3810008B3810008B381000810
:10808000B3810008B38100086991000835960008A3
:10809000FD950008B381000825960008D1C40008AA
:1080A000B3810008210B0108B3810008B3810008E7
:1080B000B3810008F50E0108B381000889CC0008DF
:1080C00069CC0008B3810008B3810008B3810008BF
:1080D000B3810008B3810008B3810008B3810008B0
:1080E00065C30008B3810008B3810008B3810008AC
:1080F000B3810008B3810008B3810008B381000890
:10810000B38100087DFD0008B3810008B381000839
:10811000B3810008B3810008B3810008B38100086F
:10812000B3810008B3810008B3810008B38100085F
:108130001DA20008B3810008B3810008A1960008C1
:1081400069960008B381000891960008E9E00008EC
:10815000B3810008B3810008B3810008B38100082F
:10816000B3810008B3810008B3810008B38100081F
:10817000B3810008B3810008B3810008B38100080F
:10818000B3810008DFF80CD000F02AFD004800475A
:10819000658B0108D0020120064880470648004749
:1081A000FEE7FEE7FEE7FEE7FEE7FEE7FEE7FEE7A7
:1081B000FEE7FEE77D0A0108858100082DE9F04110
:1081C0000024061B254671F1000605DA012400276C
:1081D000D0EB070067EB0101161E73F1000605DA0C
:1081E0000027D2EB0702012567EB030300F04CFBED
:1081F00086460E4617469C46AC4204D00025D0EB7E
:10820000050E65EB010624B10020D2EB000760EB00
:10821000030C704631463A466346BDE8F0810000E3
:108220000048704764A6010810B50446FFF7F8FF40
:108230000068005D00F0010010BDA0F16101192986
:1082400000D82038704740EA01039B0703D009E0BB
:1082500008C9121F08C0042AFAD203E011F8013B32
:1082600000F8013B521EF9D27047D2B201E000F88B
:10827000012B491EFBD270470022F6E710B51346CA
:108280000A4604461946FFF7F0FF204610BDCAB261
:10829000401E10F8011F8A4202D00029F9D10020A7
:1082A0007047421C10F8011B0029FBD1801A70474F
:1082B00010B54843044610F05DFC002805D00021AD
:1082C000002C02D0641E0155FAE710BD2DE9F047DD
:1082D00091460F4680460446002614F8015B2DB1F6
:1082E000FFF79EFF0068405DC007F6D12B2D02D03E
:1082F0002D2D18D0641E4A463946204600F026FB34
:1083000027B13968A14201D1C7F8008071054FF04B
:1083100002040BD54042002803DD0DF0E3FA0460AF
:10832000A007BDE8F08746F48066E4E70028F8DAA5
:108330000DF0D8FA04606FF00040F2E770B5064621
:108340000DF0D0FA046805460A2200213046FFF7F6
:10835000BDFF2C6070BD30B480EA010202F0004520
:1083600030F0004221F0004013D090B1C30DD40D85
:10837000C2F31601C0F31600E41A41F4000140F400
:1083800000027D34914201D3641C00E04900002CBE
:1083900002DA30BC002070474FF400000023914205
:1083A00001D3891A034340084FEA4101F7D151B183
:1083B000914202D14FF0004105E002D24FF001019D
:1083C00001E06FF0010103EBC450284430BC00F021
:1083D0005BBB2DE9FE4F804681EA0300C00F0C46CF
:1083E000009021F0004123F00045B8EB0200A941C4
:1083F00005D24046214690461C460B46024623F0D5
:108400000040104347D0270DC7F30A00C3F30A51B9
:108410000290401A019040286BDAC3F3130040F435
:10842000801B0098924620B10023D2EB030A63EB35
:108430000B0B01985946C0F14002504600F055FA26
:1084400006460D4650465946019A00F06DFA10EB6B
:1084500008006141002487EA115284EAE7731A4355
:1084600040D0009A62B3019A012A4FEA075215DC04
:10847000001B61EB02014FF0004202EA0752CDE916
:108480000042001C41F5801132462B4600F042FBB1
:1084900003B0BDE8F08F40462146F9E7001B61EBD1
:1084A0000201001C41F5801300185B412018A2F561
:1084B000001747EB030140EAD570B6196D4111E092
:1084C0006D084FEA360645EAC0754FEA0752001BB1
:1084D00061EB0201001C41F5801149084FEA3000B0
:1084E0000019514132462B4603B0BDE8F04F00F071
:1084F00002BB0098012240000023D0EB020263EB94
:10850000E073009821464FEAE074B8EB000061EB9D
:108510000401E9E783F000435BE781F0004158E79D
:108520002DE9FE4F81EA030404F0004421F00041EC
:1085300000944FF0000B23F0004350EA01045ED09A
:1085400052EA03045BD0C3F30A54C1F30A552C4426
:10855000A4F2F3340194A0FB0254C1F3130141F4DB
:108560008011C3F3130343F4801301FB024400FBA7
:10857000034E840A970A44EA815447EA8357A4FBCE
:10858000076802958D0A05FB07854FEA932C04FBCB
:108590000C542705029D4FEA065847EA1637B5EBFB
:1085A00008056EEB070C870E920E47EA811742EA28
:1085B0008312A7FB0201B6EB0B0164EB00042B0D49
:1085C00043EA0C335E1844EB1C50DA465146E7FB95
:1085D0000201C5F313044FEA0B3343EA14534FEA85
:1085E0000432019C43EA0603A4F10C040294009CAB
:1085F000CDE900B400F08EFA03B0BDE8F08F0020A2
:108600000146F9E72DE9F04D81EA030404F0004B3F
:1086100021F0004514464FF0000A23F0004150EAD3
:10862000050220D054EA01021DD0C5F30A570246C4
:10863000C5F31303C1F31300C1F30A5640F48015C8
:1086400043F48013A7EB0608101BD64608F2FD384A
:1086500073EB050002D308F1010801E092185B41B9
:10866000B8F1000F03DA00200146BDE8F08D0020CC
:108670004FF48011064684460EE0171B73EB050786
:1086800005D3121B63EB050306434CEA010C4908B2
:108690004FEA300092185B4150EA0107EDD152EAEF
:1086A000030012D082EA040083EA0501084305D0E2
:1086B000101BAB4106D20122002306E000224FF03E
:1086C000004302E06FF0010253101AEB06004CEB7E
:1086D000085110EB0A0041EB0B01BDE8F04D00F032
:1086E0000ABA70B521F0004303430CD0C1F30A5518
:1086F0000024D5EB040564EB0403D617AD1AB3418F
:1087000002DB0020014670BD201841EB025170BD14
:10871000C10F80EAE0700844CA079623002100F0E8
:10872000BCB90EB5C10F80EAE0700844CA07002149
:1087300040F233438DE80E000A460B4600F0EAF99A
:1087400003B000BD0EB540F2334102910021CDE9E6
:1087500000110A460B4600F0DDF903B000BD70B50C
:10876000C1F30A5201F000450024C1F3130140F2A5
:10877000FF3341F480119A4201DA002070BD40F2CB
:1087800033439A42A2F2334203DC524200F0BCF877
:1087900000E090402C43F1D0404270BDC1F30A523A
:1087A00010B5C1F3130140F2FF3341F480119A4236
:1087B00001DA002010BD40F233439A42A2F2334264
:1087C00003DC524200F0A0F810BD904010BD00F054
:1087D000004230F000400AD0C10D01F56071C0F3D5
:1087E000160042EA0151C2084007114370470020B9
:1087F0000146704730B5041E71F1000404DB4FF0F0
:108800000044404264EB0101141E73F1000405DBD7
:108810001C464FF00043524263EB0403994208BFE9
:10882000904230BD01F0004330B421F0004150EAE5
:10883000010206D00A0DA2F56072C1F31301002AED
:1088400002DC30BC00207047440F44EAC104C10080
:10885000E01830BC00EBC25000F016B930B50B4642
:10886000014600202022012409E021FA02F59D4260
:1088700005D303FA02F5491B04FA02F52844151E34
:10888000A2F10102F1DC30BD2DE9F05F05460020C8
:1088900092469B4688460646814640241BE0284671
:1088A00041464746224600F02FF853465A46C01A22
:1088B000914110D311461846224600F016F82D1AA1
:1088C00067EB01084F4622460120002100F00DF819
:1088D00017EB00094E41201EA4F10104DFDC4846DD
:1088E00031462A464346BDE8F09F202A04DB203A61
:1088F00000FA02F1002070479140C2F1200320FAF3
:1089000003F3194390407047202A04DB203A21FAF0
:1089100002F00021704721FA02F3D040C2F1200298
:108920009140084319467047202A06DBCB17203AAE
:1089300041FA02F043EAE07306E041FA02F3D04064
:10894000C2F1200291400843194670472DE9F05FBB
:1089500082460078002715468B460AF10104B94685
:10896000302801D09DB113E014F8010B01277828BD
:1089700003D0582801D045B10AE00DB1102D07D120
:108980000027102514F8010B02E0082500E00A2555
:108990000026B0460EE005FB080005FB06F10127A6
:1089A00001EB10461FFA80F8B6F5803F00D3B946B8
:1089B00014F8010B294600F025F90028EBDABBF189
:1089C000000F05D00FB1641E00E05446CBF8004004
:1089D000B9F1000F06D00CF085FF02210160C81E1E
:1089E000BDE8F09F48EA0640FAE700000FB4002314
:1089F00000B589B00CA900910B996FF00042CB60D3
:108A00001E4B06931E4B07930423CDE901321D4AEA
:108A1000089202466B46002000F082F909B05DF82A
:108A200014FB70B586B006464FF0FF300091CDE9DB
:108A30000101002015460C4604903246694604A800
:108A4000FFF7D4FF03460498211825B108B10A4660
:108A500000E022462A6000280DD0002B02DD00989D
:108A6000884208D0081B0094CDE9010432466946CB
:108A700004A8FFF7BBFF06B070BD0000598F0008C7
:108A8000778F0008298200080029A8BF7047401C82
:108A9000490008BF20F00100704710B4B0FA80FC14
:108AA00000FA0CF050EA010404BF10BC704749B151
:108AB000CCF1200421FA04F411FA0CF118BF0121C1
:108AC00021430843A3EB0C01CB1D4FEA00614FEAA1
:108AD000102042BF002010BC704700EBC350104470
:108AE0000029A4BF10BC7047401C490008BF20F0FB
:108AF000010010BC704710B5141E73F1000408DAB1
:108B0000401C41F1000192185B411A4301D120F051
:108B1000010010BD2DE9F04D92469B4611B1B1FA0E
:108B200081F202E0B0FA80F220329046FFF7DDFEDB
:108B300004460F4640EA0A0041EA0B0153465A46F2
:108B4000084313D0114653EA010019D0C8F140027E
:108B50005046FFF7D9FE05460E4650465946424656
:108B6000FFF7C3FE084305D0012004E02046394644
:108B7000BDE8F08D0020054346EAE0762C433743FC
:108B80000A986305E40AA0EB08000022FD0A44EA03
:108B900047540A3002D500200146E9E701051019C3
:108BA0006941DDE9084500196941BDE8F04DA2E7DA
:108BB000C1F30A52C1F3130140F2FF3341F48011B3
:108BC0009A4202DA00200146704740F233439A424B
:108BD000A2F2334202DC5242FFF796BEFFF785BE97
:108BE000064C074D06E0E06840F0010394E80700FA
:108BF00098471034AC42F6D3FFF7C8FAC8A601086C
:108C0000E8A601083A2800D2303820F02002412A94
:108C100001D3A2F13700884201D34FF0FF307047F3
:108C20002DE9FF4F087881B09946FF2805D0491CEF
:108C30002D2804D00024002308E000230BE00124A9
:108C4000F9E703EB830300EB4303491C0878FF2893
:108C5000F7D104B15B4200200090147801462D2C1E
:108C600001D02B2C04D1521C2D2C12D000240094A6
:108C700000251678FF2E0ED00A24A0FB04C801FBA5
:108C80000481002700FB0711521C16EB0C00694100
:108C9000EFE70124EBE7994450EA01020ED00024EB
:108CA000AA4D2646DFF8A88200F0C7F982468B4617
:108CB000B9F1000009DAC9F100071BE001980021B1
:108CC000C0E9001105B0BDE8F08F074612E0F807D3
:108CD00007D022462B4630464146FFF721FC064688
:108CE000884622462B4610461946FFF719FC0446D3
:108CF0000D467F10002FEAD1B9F1000F32464346EE
:108D00005046594602DAFFF77DFC01E0FFF708FC08
:108D1000009A0AB181F00041019AC2E90001D1E74D
:108D20002DE9FF4F1F468DB0D7E901464FF0FF38C0
:108D30002E2045464FF000090B90B9696D1C0E9826
:108D40008847396A824688470028F6D1BAF1FF3F42
:108D50000AD024F4D064002E11DDBAF12B0F08D014
:108D6000BAF12D0F0BD102E0404611B0ABE744F44D
:108D70008064B9696D1C0E9888478246761E6946E4
:108D8000600501D52D2000E02B208DF8000001F1B9
:108D9000010B0DF1200809E0B9696D1C0E98884798
:108DA00082460F9844F40074761E0560002E02DDA2
:108DB000BAF1300FF0D00B998A453ED144F08004CF
:108DC00006E00F99681CA9F1010944F400740860D9
:108DD000B9696D1C761E0E98884782463028F0D0FF
:108DE0002BE00B998A4505D1200603D444F080047A
:108DF000761E18E050460CF0E3FF08B30DF11301A6
:108E0000761E44F400748B4508D2AAF130000BF8AA
:108E1000010B200607D5A9F1010003E0200602D4CA
:108E200009F101008146A00502D50F99681C086070
:108E3000B9696D1C0E9888478246002ED1DC53E03C
:108E4000002E51DDBAF1650F02D0BAF1450F4BD1BA
:108E5000A00549D5B9696D1C24F44074761E0E989E
:108E600088478246002E0CDD2B2804D0BAF12D0F46
:108E700007D144F48074B9696D1C0E988847824606
:108E8000761EE00501D52D2100E02B2108F8011BFD
:108E9000CDF82C8021E00DF12901761E44F40074F8
:108EA00088450CD2AAF1300010F0FF0088F80000CD
:108EB00002D10B99884509D908F1010806E0E005BF
:108EC00001D5244801E042F20F708146B9696D1C5A
:108ED0000E98884782460F980560002E04DD5046A4
:108EE0000CF06EFF0028D6D1F9690E988847FF2054
:108EF0008BF8000088F800000020069007904B4691
:108F00006A4608A906A8FFF78BFEA00502D46FF0F9
:108F100001002AE714F0240F0AD0E00714D1DDE99C
:108F200006123868031D3B600068C0E900120BE0C0
:108F3000DDE90601FFF776FC0146E00704D1386859
:108F4000021D3A600068016028460EE700002440D8
:108F50000000F03FF1D8FFFF426842B1016811F80C
:108F6000013B23B1521EC0E900121846704701218F
:108F7000C160881E704742685AB1C368016843B92E
:108F800083688B4205D0491E521CC0E900120020A4
:108F900070474FF0FF3070472DE9F04D00231A461F
:108FA0001B1A8A4103DB00200146BDE8F08DC1F3A6
:108FB0000A52C1F3130141F480154FF0000BD107A1
:108FC00002D100186D41521E0027044640F2FF11E5
:108FD000384601EB620A3E468046024600204FF4C6
:108FE0008011FFF791FCC2197141BB1846EB0100DB
:108FF000B4EB030C75EB000C04D3E41A65EB00052D
:1090000017460E46241908F101006D4180463428A8
:10901000E3DDF91946EB0600091BA84103D24FF026
:10902000FF32134601E0002213461BEB070046EB1C
:109030000A51BDE8F04DFFF75EBD0EB540F2334278
:1090400002920022CDE900221346FFF763FD03B030
:1090500000BD70B58C1810F8015B15F0070301D145
:1090600010F8013B2A1106D110F8012B03E010F88B
:10907000016B01F8016B5B1EF9D12B0705D40023AE
:10908000521E0DD401F8013BFAE710F8013BCB1A50
:10909000921C03E013F8015B01F8015B521EF9D545
:1090A000A142D8D3002070BD4268024B1A400A4347
:1090B00042607047FFFD3FFF426822F01F020A43F3
:1090C000426070474162826270476FEA112101601D
:1090D00070470029816802D041F0010101E021F0D0
:1090E0000101816070470000084B10B5D3F80423DC
:1090F00007490A40D0E900142143D0E90240044363
:1091000021431143C3F8041310BD000000200140A7
:10911000E030FCFF0021016041608160C160704768
:109120000029816802D041F4807101E021F480714E
:10913000816070470029816802D041F4007101E02C
:1091400021F400718160704730B5024600205368F9
:109150000C0A01258D4011682B40214202D0002BC2
:1091600000D0012030BD00002DE9F05FDFF89091C4
:109170004FF4837841464846FFF7E6FFDFF884A1C5
:10918000DFF884B1614F624D624C42F210760028E4
:1091900036D041464846FFF798FF0021504607F079
:1091A000CEFE0021584607F0CAFE206890F8401015
:1091B000490720D5008DC0041DD438680DF038FA59
:1091C000814628684FF4805390FBF6F106FB1101AD
:1091D0002068826A50A00CF031FB286890FBF6F101
:1091E00006FB11012068B0F92C2053A00CF026FBDF
:1091F00048460DF01DFA2068816A41F48051816271
:10920000DFF8489141464846FFF79EFF002836D0D8
:1092100041464846FFF759FF0021504607F08FFEB0
:109220000021584607F08BFE206890F8401049074F
:1092300020D5008DC0041DD438680DF0F9F98146A1
:1092400028684FF4805390FBF6F106FB110120686B
:10925000826A31A00CF0F2FA286890FBF6F106FB66
:1092600011012068B0F92C2033A00CF0E7FA484631
:109270000DF0DEF92068816A41F480518162DFF8E7
:10928000D09041464846FFF75FFF002836D0414660
:109290004846FFF71AFF0021504607F050FE002114
:1092A000584607F04CFE206890F84010490720D53A
:1092B000008DC0041DD438680DF0BAF9074628683F
:1092C0004FF4805390FBF6F106FB11012068826A8F
:1092D00011A00CF0B3FA286890FBF6F106FB11011F
:1092E0002068B0F92C2014A00CF0A8FA38460DF034
:1092F0009FF92068816A41F480518162BDE8F09F46
:109300000020014000000140000401400C01002049
:1093100058010020500000203A2530346420657246
:10932000726F7220253034582C253034582C20731D
:1093300065740D0A3E0000003A25303464207374D1
:1093400061747320253034580D0A3E00002101401D
:109350000022014001238B4041680AB1194300E01B
:10936000994341607047000030B542680F4B0C795B
:109370001A400B6842EA04221343436082680C4B94
:109380004D791A40D1E9034323438C6844EA4504EC
:10939000234313438360C26A097D22F47002491E8D
:1093A000C9B242EA0151C16230BD0000FFFEFFFCBC
:1093B000FDF7FFC070B5072409290AD9C568A1F1D6
:1093C0000A0606EB4606B440A543B3401D43C560FC
:1093D00007E0056901EB4106B440A543B3401D43D6
:1093E00005611F23072A09D2446B521E02EB820239
:1093F00093409C4391400C43446370BD0D2A09D2B5
:10940000046BD21F02EB820293409C4391400C43B9
:10941000046370BDC46A0D3A02EB820293409C4320
:1094200091400C43C46270BD816841F0804181600D
:10943000704700210160017141718160C16001616B
:10944000012101757047000070B501217F2006F0F1
:109450009FF848210120FEF72BFF3C4C002164229D
:109460002065C1800181C1834281C2820122428084
:109470004FF47A72828002804183818301830222C9
:10948000428202820C228282C2813C220287A0F8A0
:109490004410A0F8461004F057F94FF4612004F08E
:1094A000D5FB2B4D2860002003F09CFF2949086064
:1094B00003F0F0FD04F0A4F94CF25031582004F010
:1094C00067F82549086007F0B7FA206DC16B41F0D5
:1094D0000401C163A16807F053F9206D06F09EFDF9
:1094E0004FF496700CF082F904F018F828680DF02B
:1094F0009FF87C2006F0E6F801281CD07D2006F0BD
:10950000E1F8012819D07E2006F0DCF8012816D0F9
:109510007B2006F0D7F8012813D07A2006F0D2F885
:1095200006F07EF800200DF083F8BDE870400BA136
:10953000002000F00BBB0BA004E00FA002E013A082
:1095400000E017A00CF07AF9EAE700000000002024
:1095500004010020D0000020E00000206366672E98
:10956000696E69000D202E2E2E20535752207265F1
:109570007365740D0A3E00000D202E2E2E204957D3
:1095800044472072657365740D0A3E000D202E2E2F
:109590002E20575744472072657365740D0A3E00AC
:1095A0000D202E2E2E20706F776572206F6E207228
:1095B000657365740D0A3E00074800680DF038F8C1
:1095C0000648006842F2107190FBF1F201FB1201B3
:1095D00003A00CF033F9FEE7080100205801002039
:1095E0003A25303464204275734661756C745F4867
:1095F000616E646C65720D0A3E00000000B585B0B6
:109600006A460021054800F05DF9054814226946C4
:10961000006800680CF0EEFA05B000BD0064004080
:10962000D00000200248016841F004010160704749
:10963000046400400A4800B5006885B01422406800
:1096400069460CF0C1FA0100064804D0694600F0F2
:1096500091F905B000BD0022012100F0B7F8F8E74C
:10966000D00000200064004000B585B06A460021AB
:10967000054800F027F9054814226946006800688B
:109680000CF0B8FA05B000BD00680040D000002022
:109690000248016841F0040101607047046800401D
:1096A0000A4800B5006885B01422406869460CF08D
:1096B0008BFA0100064804D0694600F05BF905B05A
:1096C00000BD0022012100F081F8F8E7D000002061
:1096D00000680040094910B588424FF0010101D1EE
:1096E0004C0601E04FF08064204605F075FF2046EF
:1096F000BDE81040002105F06FBF0000006400408D
:10970000F0B5827A012191402E4A136843F001039B
:1097100013602C4B1C331C688C431C60294D067B4A
:10972000294C0C35A6B92E688E432E604688C78812
:1097300046EA0746877A04EBC707C7F840660688FB
:10974000878846EA0746877A04EBC707C7F8446666
:10975000067B012E12D12E680E432E60867A056894
:1097600004EBC6064FEA3545C6F84056867A45688A
:1097700004EBC6044FEA3545C4F84456114CC57A8B
:10978000241D002D256806D00D4325600D4C05894C
:10979000143415B104E08D43F7E725688D43256047
:1097A0000589012D02D125680D432560407B0128E4
:1097B00002D1186808431860106820F0010010609A
:1097C000F0BD00000066004000600040002A4269D1
:1097D00001D00A4300E08A434261704710B5036834
:1097E000002223F002030360036843F001030360D7
:1097F0004FF6FF7300E0521C4468E40701D19A421F
:10980000F9D14268D2073ED08A79012A02683CD059
:1098100022F080020260CA79012A026838D022F060
:10982000400202600A7A012A026834D022F0200243
:1098300002604A7A012A026830D022F010020260E7
:109840008A7A012A02682CD022F008020260CA7AC1
:10985000012A026828D022F0040202608A78CC78BB
:10986000920742EA04620C7942EA04424C79098880
:1098700042EA0452491E0A43C261016821F0010113
:109880000160002114E0002010BD42F08002C1E719
:1098900042F04002C5E742F02002C9E742F0100260
:1098A000CDE742F00802D1E742F00402D5E7491CB7
:1098B0004268D20701D09942F9D14068C007E2D18D
:1098C000012010BD10B500EB0113D3F8B04114F026
:1098D00004041472D3F8B04134D0E408C2F8044050
:1098E000D3F8B04104F002045472D3F8B44104F048
:1098F0000F049472D3F8B441240AD474D3F8B84155
:10990000D472D3F8B841240A1473D3F8B841240CA4
:109910005473D3F8B841240E9473D3F8BC41D47374
:10992000D3F8BC41240A1474D3F8BC41240C5474F9
:10993000D3F8BC311B0E937439B1016941F0200199
:10994000016110BD640D1460CAE7C16841F02001D7
:10995000C16010BD00218171C171017241728172BB
:10996000C1728170C1700321017102214171012115
:109970000180704730B50246002093685B0108D42F
:109980009068000101D5012003E09068C00037D540
:10999000022002EB0012D2F8803103F00103C2F87A
:1099A00080310B7A73B3D2F880414D681C434B7AF7
:1099B00043EAC5031C43C2F880418B7A03F00F03CE
:1099C0008B72D2F8843123F00F03C2F88431D2F8BD
:1099D00084318C7A2343C2F88431CB7ACC6843EA51
:1099E0000423C2F88831CB7B096943EA0121C2F81C
:1099F0008C11D2F8801141F00101C2F8801130BD04
:109A0000042030BDD2F880314C7A23430C8843EADD
:109A10004453C2F88031D0E710B50022044B03E074
:109A200050F822401C60521C8A42F9D3186810BDBD
:109A30000030024001490120886070470030024038
:109A40000FB470B588B0142236496846FEF7FBFBA8
:109A5000354C0C9808B10DAD3AE0344800682064EC
:109A6000002008B070BC5DF814FB01CD059011F822
:109A7000012B05A80C91632A17D006DC2E2A09D0E9
:109A8000452A0FD0502A23D10AE0692A11D0772A1B
:109A90001ED10CE0142268460599FEF7D4FB17E0AE
:109AA000402000E04320009012E0002202E001226A
:109AB00000E003220DF10B019DF80A6010F8013B54
:109AC00073549DF80A305B1C8DF80A30521EF3D295
:109AD0000C9908780028C8D1206CD8B10CF0A8FDEA
:109AE000206413A000990BF0A9FE00256E4606E045
:109AF00070192E21C27A11A00BF0A0FE6D1C9DF8EA
:109B00000A00A842F4DC0FA00BF098FE206C0CF0C9
:109B10008FFD20640C4814226946006840680CF0F0
:109B200069F89EE7549F01080000002050010020C2
:109B3000253032582E3C3C2E000000002563253095
:109B4000325800000D0A3E00D0000020F0B5ADF202
:109B5000644D0C4606460DF00BFD002833D189A953
:109B600030460EF0D9F900282DD101222146684651
:109B70000EF0E6F9002826D1144C154DDDE902015E
:109B8000884219D020680CF053FD07460DF25C4363
:109B90000122191F68460EF0A4FA38B9DDF85C04FA
:109BA000012803D1DDF8580410F028F838460CF0ED
:109BB0003FFD28688047E1E768460DF0E3FC00219F
:109BC00030460EF0A9F90DF2644DF0BD04010020FD
:109BD0001C000020044A01238340106809B1184387
:109BE00000E09843106070470074004010B50121F8
:109BF0004C07204605F0F0FC2046BDE8104000214F
:109C000005F0EABC05490028086802D040F00300CE
:109C100001E020F003000860704700000474004079
:109C2000044908B501EB90002C300090006880B228
:109C300008BD00000074004030B5084C236840F6B1
:109C4000FE7282409343D1E900252A43D1E90251B3
:109C50000D432A4382401A43226030BD0074004005
:109C6000082805D042EA0141034A104401627047C6
:109C700042EA0121F8E70000007400400021016081
:109C800041608160C160704710B50A460C0601F062
:109C90007F0303EB830100EBC10102D501F58E7157
:109CA00001E001F55D71D2090B704A700AF05CFAAF
:109CB000002010BD0A4610B5090602F07F0306D544
:109CC00003EB830100EBC10101F58E7105E002EBAE
:109CD000820100EBC10101F55D7100248C700B70F5
:109CE000D2094A700AF027FA002010BD10B50A0602
:109CF00004D501F07F010AF065FB01E00AF046FBA4
:109D0000002010BD70B50C460E0601F07F0505EB76
:109D1000850100EBC10102D501F58E7101E001F56D
:109D20005D71E4090D704C708A60CB7000D0CD80FD
:109D3000022B01D100220A710AF0D4F9002070BD73
:109D400010B501F07F0404EB840100EBC101C1F800
:109D50008833C1F880230023C1F88C3381F8753330
:109D600081F87443C37801F55D71012B00D10A615C
:109D700014F0FF0F03D00AF029FA002010BD0AF0FA
:109D800043F9FAE70069002261F30A1201681143FE
:109D9000016070470A4610B5090602F07F0306D538
:109DA00003EB830100EBC10101F58E7105E002EBCD
:109DB000820100EBC10101F55D7101248C700B7013
:109DC000D2094A700AF0EAF9002010BD70B511F00E
:109DD0007F0404EB840100EBC1014FF0010581F821
:109DE0001D5181F81C41C1F82821C1F82C2101F531
:109DF0008E714FF00002C1E9053203D00AF0E6F996
:109E0000002070BD0AF000F9FAE700002DE9F041EA
:109E1000064600250AF05AFC074655E0F80751D0DF
:109E20003069EAB20369416BD14006EB820201F06E
:109E30000101926943EAC11194680C40E1071AD00C
:109E40000124426B04FA05F18A43426306EB850064
:109E5000806984601F48E9B20068426830469047D4
:109E6000F078012807D135B996F81101042802D1FC
:109E700030460AF025F9200704D506EB85000824B2
:109E800080698460E00604D506EB850010248069B3
:109E90008460600604D506EB8500402480698460F8
:109EA000A00704D506EB85000224806984602006A3
:109EB00008D52946304600F067F906EB8501802079
:109EC000896988607F086D1C002FA7D10120BDE83B
:109ED000F0810000440200202DE9F04106460024F4
:109EE0000AF0FAFB0746DFF8988043E0F8073FD016
:109EF000E1B230460AF0F6FB0546C00725D006EB76
:109F000084000125416D8D60F17801290CD1406DEF
:109F1000016904EB840006EBC000C1F31201D0F824
:109F20007C23511AC0F88C13D8F80000E1B2026803
:109F300030469047F078012807D134B996F81101DE
:109F4000052802D130460AF0BBF8A80704D506EB75
:109F500084000225406D8560280709D5D8F80000E7
:109F600081683046884706EB84010820496D886087
:109F70007F08641C002FB9D10120BDE8F0810000EA
:109F80004402002070B50646C068816921F01001C6
:109F90008161F068056A05F00F0000EB800006EBB8
:109FA000C004C5F3434004F55D74072821D2DFE8FF
:109FB00000F0202004202020150047F6F070054214
:109FC00017D0C5F30A152A463046E1680AF09BFB14
:109FD000E0682844E060A069284409E0082206F20D
:109FE000CC5130460AF08FFBA069C5F30A11084432
:109FF000A061F068816941F010018161012070BDAC
:10A0000038B5044600208DF8000094F812018DF850
:10A01000000015480068416920468847206980682B
:10A02000E2684FF400615161A17AD1B1C00718D044
:10A0300094F81501012814D19DF80000032810D1CF
:10A04000D4F80C01016841F001010160D4F80C0161
:10A05000016841F0030101600448016841F0060114
:10A060000160012038BD00004402002010ED00E036
:10A0700070B50446006900250126416821F0010100
:10A080004160294620460AF09DF90020FF2106E0A4
:10A0900004EB800293699960526D9160401C627874
:10A0A0008242F5D821694FF0FF3088612846216946
:10A0B00066F30F0066F31F40C861216945F00B008D
:10A0C0004861216945F00B0008612069016821F4AD
:10A0D000FE610160204609F0F3FFE1684FF4805013
:10A0E000486103480068016920468847012070BD27
:10A0F0004402002070B504460AF02AFB0122002326
:10A1000084F8122184F814311946402511E000BF6B
:10A1100001EB810004EBC00080F81D2180F81C11C8
:10A12000A0F8221180F81F31C0E94953491CC0F83A
:10A13000303160788842EBD8002110E001EB8100DB
:10A1400004EBC00282F8753382F87413A2F87A1314
:10A1500082F87733C2E9DF53491CC2F8883360784C
:10A160008842EBD8204609F00DFF204609F0B2FDE9
:10A17000002120460AF04CFB204609F0EBFD20466A
:10A18000BDE870400AF0DDB82DE9F0470E460546FF
:10A1900001EB860005EBC004D4E94C01421AD4F867
:10A1A000240104F58E74904200D20246D21C970816
:10A1B00005EB860923E000BFA0EB0108A16841453B
:10A1C00000D2884608F1030087081FFA88F3F2B22C
:10A1D0002846E1680BF01AFAE16801EB0800E0603C
:10A1E000A16901EB0800A0616169884207D3217869
:10A1F0000120884029694A6B82434A630BE0D9F801
:10A200001800806980B2B84205D9D4E905018142BD
:10A2100001D20028D0D10120BDE8F08710B5002080
:10A2200007F0AEF90348006810F83A1F41F0080142
:10A23000017010BD50000020074A904201D207482B
:10A2400001E005481038064A8B0001EA020101D5F9
:10A25000C160704781607047106402400060024036
:10A260007D0F7D0F074A904201D2074801E0054863
:10A270001038064A8B0001EA020101D5C16070471F
:10A280008160704710640240006002407D0F7D0FC6
:10A290000029016802D041F0010101E021F0010133
:10A2A000016070472DE9F04190B00546684600F026
:10A2B0002EF90121880505F06BF9DFF8888040460A
:10A2C00000F044F8204F4FF00066CDE90067686861
:10A2D00000246946006802904020CDE90304C002D2
:10A2E000CDE90940C011CDE90540089407940D94CB
:10A2F00040460E9400F0DAF801214046FFF7C8FF0F
:10A30000DFF84080A8F17808404600F01FF8CDE95A
:10A310000067286869460068CDE90204802004903F
:10A3200040000990404600F0C1F801214046FFF787
:10A33000AFFF0122C021381F07F0F2F910B0BDE8CD
:10A34000F0810000B8640240041001402DE9F043A0
:10A35000016821F00101016000210160416081601C
:10A36000C1600161212141613C493C4A3D251039D0
:10A37000904202D18D60BDE8F083384A4FF4746694
:10A380001832904201D18E60F5E7344A4FF47417C9
:10A390003032904201D18F60EDE7304A4FF0746C5B
:10A3A0004832904202D1C1F808C0E4E72B4B2C4A56
:10A3B0006033984201D1CA60DDE7284C294B7834DC
:10A3C000A04201D1CB60D6E7DFF89080264C08F19F
:10A3D0009008404501D1CC60CDE7DFF880804FF098
:10A3E0003D5908F1A808404502D1C1F80C90C2E7D8
:10A3F0001E49DFF878800839404501D10D60BAE781
:10A400001A4D1835A84201D10E60B4E7174D30350A
:10A41000A84201D10F60AEE7144D4835A84202D1E1
:10A42000C1F800C0A7E7114D10496035091FA842C7
:10A4300001D10A609FE70D4A7832904201D10B604A
:10A4400099E70A4A9032904201D10C6093E7074A9B
:10A45000A83290428FD1C1F800908CE71060024082
:10A460003D000020400F002000003D20106402400D
:10A47000014600200968C90700D0012070470B067B
:10A4800007D5436912B143F0800301E023F0800354
:10A490004361802908D0002A026801F01E0101D022
:10A4A0000A4300E08A4302607047000030B5036849
:10A4B000124ACC6813400A682243D1E905452C436F
:10A4C0002243CC6922430C6A22434C6A22438C6AA1
:10A4D00022434C6B22438C6B22431A430260426935
:10A4E00022F00703D1E90B2422431A4342610A698F
:10A4F00042604A6882608968C16030BD3F801CF05C
:10A500000AB101617047C160704741607047002126
:10A51000016041608160C160016141618161C1612F
:10A52000016241628162C16201634163816370477C
:10A53000704700002DE9F04F93B006007DD03078D1
:10A54000DFF8FCA30027FF4C4FF0FF3B612875D0DC
:10A5500028DCFD4CFD4D442871D014DC2E286FD032
:10A5600008DC23286DD02B2801F00D822D2869D11D
:10A5700001F005BA3A2801F00A823F2801F0FA8179
:10A580004228F4D142E056282DD006DC4C2879D060
:10A59000532878D05528EAD1FDE357285BD05F28AF
:10A5A000E5D1FCE0DFF8A893EA4D62384FF00108EE
:10A5B000172847D2DFE810F00B034600DD022D0715
:10A5C000CC0746004600F20546004600460046001D
:10A5D00046004600300239032901D1035D060C080C
:10A5E00017005F0136060121080304F0D1FFFFF7D1
:10A5F00021FAD948D949081A8108D748FFF70CFA37
:10A600000B220090D6A30121D8A0C8E3701C2C22F5
:10A6100006A90FF06FFA0490002813D0012812DD6C
:10A62000102200210798FDF751FE04461022002158
:10A630000698FDF74BFE0470B2E3B2E3B2E352E0DA
:10A640007BE054E1D6E0102200210698FDF73EFEA3
:10A650000178CBA01FE0701C2C2206A90FF04AFA4B
:10A6600004900028D9D001280EDD1022002107987F
:10A67000FDF72CFE0446102200210698FDF726FE69
:10A680000480D9E70AE028E0102200210698FDF7AF
:10A690001DFE0188BCA00BF0D1F8CDE7701C2C2268
:10A6A00006A90FF027FA04900028B6D001280CDD87
:10A6B000102200210798FDF709FE04461022002110
:10A6C0000698FDF703FE0460B6E710220021069805
:10A6D000FDF7FCFD0168AEA0DDE730460FF07AF92A
:10A6E00013B0BDE8F08F701C2C2206A90FF002FAFF
:10A6F000049002287EDB032803D10898007869289B
:10A700000DD05C46594607980EF0EBF804902146B0
:10A7100006980EF0E6F804990FF026F98CE75C46EF
:10A72000594607980EF0DDF80490214606980EF081
:10A73000D8F804990EF0CAF97EE7142296490EA8BB
:10A74000FDF781FD771C00260DF1380809E0B819E6
:10A7500002210EF0C6F806EBD67208EB6201B61CB9
:10A76000C8723846FDF79DFDB042F0D806EBD670B2
:10A7700040088DF84200002202212046FFF726F80B
:10A78000286814220EA900680BF034FA0122022175
:10A790002046FFF71BF80020FFF752F94CE7142181
:10A7A0000EA8FDF769FD701C074602210EF099F80E
:10A7B00000260DF13808BF1C0E9009E0B8190221DF
:10A7C0000EF08FF806EBD67208EB6201B61CC87269
:10A7D0003846FDF766FDB042F0D806EBD67040086B
:10A7E0008DF84200002202212046FEF7EFFF286884
:10A7F000006800E087E014220EA90BF0FBF90122AB
:10A8000002212046FEF7E2FF16E7701C2C2206A963
:10A810000FF070F90490002875D0012804DD079826
:10A82000FDF78CFD059001E0CDF81480594606989F
:10A830000EF057F80490FF2807DD4FF6FF7101EA8C
:10A840000021C0F3072001430491544804A9059A4C
:10A8500000680EF0D7FF70B351A00AF0EFFF059823
:10A86000C10008FA01F80499A8F1010808EA0102F8
:10A8700041004CA04CE1701C2C2206A90FF03AF9C3
:10A88000049002283FD15C46594606980EF029F8FC
:10A890000490FF2810DD4FF6FF7101EA0021C0F39C
:10A8A000072001430491214607980EF01AF80499F5
:10A8B00041EA004007E017E0214607980EF011F842
:10A8C000049941EA002004900698FDF7EAFC440848
:10A8D0000798FDF7E6FC04EB5002304804A9006835
:10A8E0000FF0BEFA00288FD1042130A0D3E6701CEF
:10A8F0002C2206A90FF0FEF8314C4FF400610490B1
:10A9000010B1022807D050E224F81070401C0490C7
:10A910008842F9D390E634F810201AB1801C0490D4
:10A920008842F8D306980BF0A3FE06460D4607981A
:10A93000FDF704FDFDF7F5FE0022224B44E0000088
:10A94000DEA3EA605000002000680040D000002034
:10A9500008000020D87500200080000800000408CE
:10A960004175672032382032303135002025642E81
:10A97000253032642025732C203C253038583E0089
:10A980002C253032580000002C25303458000000AF
:10A990002C25303858000000889F0108E000002076
:10A9A0002C00000025302A5800000000202E2E2EFA
:10A9B000493243206572726F72282530325829005F
:10A9C000E8070020000008400EF050F932462B4600
:10A9D000FDF7A6FD0022F54BFDF714FE0022F44B17
:10A9E000FDF7F7FC05460E462068FDF79AFE2A465D
:10A9F0003346FDF7EEFCFDF7B2FE20600698FDF74A
:10AA00009DFC049924F811000798FDF797FC049920
:10AA100004EB410148800FE6701C2C2206A90FF0C0
:10AA200069F8049000283ED070DD0698FDF786FC9A
:10AA300021684881049801287BDD07980BF018FEF7
:10AA40000022DC4BFDF7D6FE65D82068B0F91E0069
:10AA5000FDF767FE4FF06632D74BFDF761FD6FF0F3
:10AA60000B02FDF73EFE6FF00102FDF73AFE524683
:10AA7000D24BFDF7C7FD0022CD4BFDF7AAFCFDF739
:10AA80006EFEFDF745FEFDF7A2FE05460E46079851
:10AA90000BF0EEFD0022CA4BFDF742FD2A4633467D
:10AAA000FDF7B0FD3EE02568B5F91E00FDF739FE63
:10AAB0004FF06632C04BFDF733FD6FF00B02FDF730
:10AAC00010FE6FF00102FDF70CFE5246BB4BFDF786
:10AAD00099FD0022B64BFDF77CFCFDF740FEB5F971
:10AAE0000E1048434FF4167190FBF1F2B5F90A10BD
:10AAF000B4A00AF0A3FE2068B0F9441019B9B0F868
:10AB00004620002A87D0B0F9462000E011E0B7A027
:10AB10000AF094FE90E507980BF0AAFD0022A84BDE
:10AB2000FDF7FEFCFDF71BFE2168C8810498032891
:10AB300009D0206880F80C80206805F06FFA04982E
:10AB4000042806D078E50898FDF7F8FB216808731B
:10AB5000F2E70898FDF7F2FB2168A1F84400099894
:10AB6000FDF7ECFB2168A1F84600084603F098FCCD
:10AB700062E5701C2C2206A90EF0BCFF0490002890
:10AB800014D04EDD0698FDF7D9FB2168C8820498E1
:10AB9000012846DD07980BF06BFD0022884BFDF77E
:10ABA000BFFCFDF7DCFD216888823AE02468B4F937
:10ABB0001400FDF7ADFD9749FDF7CDFBFDF707FE4E
:10ABC000B4F9164002460B46214693A0F4E3701CEC
:10ABD0002C2206A90EF08EFF0490002816D01EDD50
:10ABE0000698FDF7ABFB216848800498012816DD24
:10ABF0000798FDF7A3FB21688880049802280EDDE2
:10AC00000898FDF79BFB216808800AE02068B0F9EE
:10AC10000030B0F90420B0F9021089A0F6E32068F2
:10AC20000780206805F0FAF906E5701C2C2206A9B9
:10AC30000EF060FF8D4D049010B1052840D0B4E0B7
:10AC40008BA00AF0FBFD002730E02068B0F91E0061
:10AC5000FDF767FD4FF06632574BFDF761FC6FF073
:10AC60000B02FDF73EFD6FF00102FDF73AFD524683
:10AC7000524BFDF7C7FC00224D4BFDF7AAFBFDF739
:10AC80006EFDB6F9021048434FF4167100F5967048
:10AC900090FBF1F2B6F90610CDE90019B6F90430CF
:10ACA00035F918107AA00AF0C9FD7F1C07EB870858
:10ACB00005EB4806B6F908005FEA0009C5D1BBE418
:10ACC0000026A84600E0761C06EB860708EB470541
:10ACD000288930B10A98FDF731FBB5F90810884290
:10ACE000F1D10698FDF72AFB06EB860228F8120040
:10ACF0000798FDF723FB4FF4167100FB01F620685F
:10AD0000B0F91E00FDF70DFD4FF066322A4BFDF73E
:10AD100007FC6FF00B02FDF7E4FC6FF00102FDF79A
:10AD2000E0FC5246254BFDF76DFC0022204BFDF761
:10AD300050FBFDF714FD96FBF0F008EB470148804F
:10AD40000898FDF7FBFAA8800998FDF7F7FAE88064
:10AD50000A98FDF7F3FA28816EE4701C2C2206A9EC
:10AD60000EF0C8FE30B101281DD002281CD00328E7
:10AD70001BD1BBE0D9F800003C2190FBF1F3206827
:10AD80004FF47A74B0F91220B0F91000624392FBCC
:10AD9000F1F2604300E0FDE390FBF1F182E0C7E1F6
:10ADA0003FE2D1E3CBE07FE087E03AE1006A18417F
:10ADB0000000E03F0000F03F66660A40F09A6E3FF8
:10ADC00000C082400D3E7028756C736529202054A8
:10ADD0002C5520202020202020202020202E2E2E08
:10ADE00020256475732C2564560000000D0A3E7101
:10ADF000287377636829202064656C61792C7769F2
:10AE00006474682020202E2E2E20256475732C2536
:10AE100064757300000016440D3E6428656C61790A
:10AE2000292020542C505720202020202020202072
:10AE3000202E2E2E20256475732C252E32660000C0
:10AE40000D3E6228757273742920204E2C6C656E3D
:10AE50002C70657220202020202E2E2E2025642C80
:10AE6000256475732C25646D730000004004002078
:10AE70000D3E712873686170652920772C552C74FC
:10AE8000642C746F2C74726566202E2E2E000000C8
:10AE90000D0A25642C25642C25642C25642C25643E
:10AEA00000000000FDA0B1E20698FDF747FA00F0AF
:10AEB0000301206803F02AF906E40698FDF73EFA3C
:10AEC000C0EB001080004FF47A7590FBF5F021681C
:10AED00008820798FDF732FAC0EB0010800090FB63
:10AEE000F5F12068418205F0DBFB9AE10698FDF759
:10AEF00025FAC0EB001080004FF47A7590FBF5F056
:10AF0000216808820798FDF719FAC0EB001080004D
:10AF100090FBF5F0216848820898FDF70FFA0A289F
:10AF20007EDB0898FDF70AFA642879DC0898FDF7BB
:10AF300005FAC0EB00108100C9F800108EE1701C0A
:10AF40002C2206A90EF0D6FDDF4D10B1022868D1E3
:10AF5000F1E0DFF87883B8F800008000FDF7F2FB3D
:10AF60004FF06632DA4BFDF7DBFA6FF00B02FDF7BC
:10AF7000B8FB6FF00102FDF7B4FBD3465246DFF891
:10AF800054A35346FDF73EFBDFF84C9300224B469B
:10AF9000FDF71FFAFDF7E3FBD04F06463888800027
:10AFA000FDF7D0FB4FF06632C94BFDF7B9FA6FF0F1
:10AFB0000B02FDF796FB6FF00102FDF792FB5A467C
:10AFC0005346FDF71FFB00224B46FDF702FAFDF743
:10AFD000C6FB0146B8F8020040F24C425043000B59
:10AFE0000090788833465043020BBDA00AF026FC3F
:10AFF000C74800688000FDF794FB4FF06632B44B01
:10B00000FDF78EFA6FF00B02FDF76BFB6FF001029C
:10B01000FDF767FB5A465346FDF7F4FA002201E0BC
:10B020005FE33AE14B46FDF7D4F9FDF798FB06469E
:10B03000B84800688000FDF774FB4FF06632A44BFF
:10B04000FDF76EFA6FF00B02FDF74BFB6FF001029C
:10B05000FDF747FB5A465346FDF7D4FA00224B460C
:10B06000FDF7B7F9FDF77BFB0746AB4840F24C41D3
:10B0700040F24C42006833464843A84909685143AE
:10B08000CA1701EB125109130091C11700EB1150BF
:10B0900002133946A2A00AF0D1FBD5F82802FDF729
:10B0A00051FB4FF066328A4BFDF73AFA6FF00B0214
:10B0B000FDF717FB6FF00102FDF713FB5A465346ED
:10B0C000FDF7A0FA00224B46FDF783F9FDF747FB99
:10B0D0008600D5F82402FDF735FB4FF066327C4B35
:10B0E000FDF71EFA6FF00B02FDF7FBFA6FF001029D
:10B0F000FDF7F7FA5A465346FDF784FA00224B460D
:10B10000FDF767F9FDF72BFB2168830040F24C4205
:10B11000B1F91A00B1F9181050435143CA1701EBA5
:10B1200012510A13C11700EB1150011388A00096A9
:10B130000AF084FB75E00698FDF700F9000340F281
:10B140004C4690FBF6F0216848830798FDF7F6F827
:10B15000000390FBF6F1206800220183418B284612
:10B16000FDF7B0FF2068864E0022418B3046FDF788
:10B17000A9FF4FF4837421462846FDF7A6FF214618
:10B180003046FDF7A2FF012221462846FEF7E2F8ED
:10B19000012221463046FEF7DDF8EEE3701C2C223A
:10B1A00006A90EF0A7FC10B1022876D11FE01020EE
:10B1B000FEF736FD00EBC00101EB001040F2FF741A
:10B1C00004EB800040F6FF75B0FBF5F60020FEF7BB
:10B1D00027FD00EBC00101EB001004EB8000B0FB89
:10B1E000F5F1252002460090334666A0A0E70698B8
:10B1F000FDF7A4F8C0EB00306424323090FBF4F08B
:10B2000085B20798FDF79AF8C0EB0030323090FB1A
:10B21000F4F081B22A460020FEF722FD0120FEF75D
:10B22000F1FCAAE3701CFDF789F8012804D002287C
:10B2300009D0042831D115E02168C86B20F0020044
:10B2400040F0010005E02168C86B20F0010040F0EB
:10B25000020020F00400C863D9F80010206805F04F
:10B260008FFA8AE32168C86B20F0030040F00400E5
:10B27000F1E7059738460497B4E000BF05EB4000BE
:10B280000599C388428849A00AF0D8FA049800EBCF
:10B29000800035F81000401C8FE067E10D3E7328F8
:10B2A000696D6D657229206E202F2F2074312C74EA
:10B2B000322C7470202E2E2E2025646E732C256463
:10B2C0006E732C256475730000200140CC000020B3
:10B2D00066660A40F09A6E3F0000E03FC80000201A
:10B2E00020200D3E61286463292020202055312C28
:10B2F00049312C55322C49322020202E2E2E20254B
:10B3000064562C2564412C2564562C25644100008C
:10B3100018000020140000200C0000201000002065
:10B320000A0D3E61286463292020202069646C6531
:10B33000202020202020202020202E2E2E2025649A
:10B34000562C2564412C2564562C256441000000B0
:10B350000A0D3E6128646329202020204973696D0D
:10B360006D2C492C55682C556C202E2E2E202564D2
:10B37000412C2564412C2564562C25645600000080
:10B38000002101400D3E69284441432920202069C5
:10B39000312C69322020202020202020202E2E2E0B
:10B3A00020256425632C2564256300000D0A25648F
:10B3B0002C25642C2564000028E000EB8000059912
:10B3C000400001EB50010498059100EB800005EB73
:10B3D0004000C3884288AFF22C000AF02FFA04988C
:10B3E000401C049000EB800035F8101000297FF419
:10B3F00045AF0498059900EB8000491D05EB40001E
:10B40000059130F8043C30F8082CFEA00AF016FA3A
:10B41000B3E22068C781206804F000FE002604968D
:10B4200005966CE0401CFDF78DF905EB470A804658
:10B430008946BAF80200FDF785F90022F54BFDF7C1
:10B440006FF80022F44BFDF7DDF80022F34B0DF00E
:10B450000DFC0022F24BFDF7D5F80022F14BFDF771
:10B460005FF842464B46FDF75BF85A46FDF739F95F
:10B470000022ED4BFCF7ADFF804689460598FDF7AD
:10B4800050F942464B46FCF7A4FFFDF768F90590DA
:10B4900035F81700401CFDF755F907468846BAF8FD
:10B4A0000600FDF74FF90022DA4BFDF739F80022CC
:10B4B000D94BFDF7A7F80022D84B0DF0D7FB00229F
:10B4C000D74BFDF79FF80022D64BFDF729F83A46F7
:10B4D0004346FDF725F85A46FDF703F90022D24B03
:10B4E000FCF777FF074688460498FDF71AF93A46B5
:10B4F0004346FCF76EFFFDF732F9761C049006EB2D
:10B50000860735F8170000288CD10AF063F90499F2
:10B510004FF47A7091FBF0F3059991FBF0F22068FB
:10B520000621B0F90E00C0EBC00090FBF1F1AFF2C4
:10B5300084100AF083F92168C889401C00B2C881D0
:10B54000B0F5167FFFF667AFB8A00AF077F914E2FE
:10B55000701C2C2206A90EF0CDFAB54DB54EDFF8C1
:10B56000D882B64F049028B104281BD0012013B014
:10B57000BDE8F08F2968642091FBF0F2316891FBFF
:10B58000F0F12068D8F80040B0F932302520CDE93C
:10B59000000400E0AEE1CDE90203A9A03B680AF097
:10B5A0004DF9EAE10698FCF7C9FE64214843306092
:10B5B0000798FCF7C3FE6421484328600898FCF70D
:10B5C000BDFE38600998FCF7B9FEC8F80000D4E168
:10B5D00000273D46701C2C2206A90EF08BFA30B1D4
:10B5E00001287CD002287BD003287AD186E0246809
:10B5F000B4F93600C11700EB51709D4901EBE00032
:10B60000FDF78FF84FF066329A4BFCF789FF6FF029
:10B610000B02FDF766F84FF05532974BFCF7F2FF3F
:10B620004FF06632934BFCF7D4FEFDF7FBF8FDF7C5
:10B63000CEF80746B4F934008846C11700EB5170C4
:10B64000C010FDF76EF84FF066328A4BFCF768FFCA
:10B650006FF00B02FDF745F84FF03332874BFCF7E4
:10B66000D1FFFDF7DFF8FDF7B2F805460E46B4F955
:10B670003000FDF756F84FF066327E4BFCF750FF76
:10B680006FF00B02FDF72DF86FF0010B5A46FDF736
:10B6900028F87B4A7B4BFCF7B5FFDFF88CA1002232
:10B6A0005346FCF796FEFDF75AF88146B4F92E0092
:10B6B000FDF737F84FF066326E4BFCF731FF6FF055
:10B6C0000B02FDF70EF85A46FDF70BF86C4A6D4B6E
:10B6D000FCF798FF00225346FCF77BFE02E015E0E2
:10B6E00010E029E0FDF73BF801468DE8E00109EBA9
:10B6F000D970421064A00AF0A1F83EE10898FCF766
:10B700001DFE07460798FCF719FE05460698FCF74C
:10B7100015FE06461FB90A2096FBF0F0871925B9D9
:10B720007000032190FBF1F0351AB6F5487F03D87D
:10B73000B54201DAB74201DC022018E73046FCF7D7
:10B74000F0FF0C22FCF7CDFF0222FCF7CAFFDFF866
:10B7500034B14B4A5B46FCF7E3FEDFF818814FF04B
:10B7600066394A464346FCF74DFFDFF8BCA000228D
:10B770005346FCF72EFEFCF7F2FF21680022C88337
:10B780004FF483714D48FDF7E5FD2846FCF7C9FFEE
:10B790000C22FCF7A6FF0222FCF7A3FF384A5B4607
:10B7A000FCF7BEFE4A464346FCF72CFF00225346F8
:10B7B000FCF70FFEFCF7D3FF04463846FCF7B1FF59
:10B7C0000C22FCF78EFF0222FCF78BFF2C4A5B4613
:10B7D000FCF7A6FE4A464346FCF714FF00225346F8
:10B7E000FCF7F7FDFCF7BBFFE11704EB9171C1F328
:10B7F0008F02C11700EB9170C0F38F012F48FDF746
:10B8000061FC5DE00D0A25642C25642C25640D0A7D
:10B810003E00000000001C400000184000000840EE
:10B8200000007940000024400000E03F0D0A3E0087
:10B830008800002084000020800000207C00002080
:10B840000D3E6628616E2920202020546C2C5468FF
:10B850002C6D696E2C6D61782C542E2E2025642C55
:10B8600025642C256425632C256425632C25640020
:10B8700000F0FFFF66660A405555D53F3333C33F9E
:10B88000DEA3EA60F09A6E3F0D3E752862616E6B32
:10B8900029202055632C55632F322C32302C2D3526
:10B8A000202E2E2E202564562C2564562C252E3134
:10B8B00066562C252E3166560000000000220140FD
:10B8C000354C20200590012205A920680DF09AFF33
:10B8D000E8B30598032240F30200C0F10800864057
:10B8E00026F0FF002130059005A920680EF0B8FA77
:10B8F00070BB3DE0284C88200590022205A92068F5
:10B900000DF080FF18B3059800B20AF09CF8FCF720
:10B910005EFF02460B4621A009F090FF8B200590A8
:10B92000022205A920680DF06DFF80B1059800B2D4
:10B930000AF089F8FCF74BFF02460B461BA009F002
:10B940007DFF97200590022205A9206801E00FE005
:10B9500013E00DF057FF58B1059800B20AF073F8E4
:10B96000FCF735FF02460B4613A009F067FF04E021
:10B970000420FCE513A00EF051F90020F7E5701C3F
:10B9800000F036F9F3E5701C00F06CFBEFE5701C7D
:10B9900000F020F8EBE50000E00000200D3E5669C5
:10B9A0006E3D252E31662C2000000000566F757408
:10B9B0003D252E31662C2000506F75743D252E31AB
:10B9C00066000000750D690D730D640D700D620D3C
:10B9D000660D000070B5ADF55A7D040089A8D790BA
:10B9E0004FF48070D8900ED02078652879D025DC6F
:10B9F000744D3E2876D01CDC20282CD030282CD04A
:10BA0000312870D129E070A009F018FFFF2189A822
:10BA10000BF0C2FD20B989A96C480CF030FB18B1BD
:10BA20006BA009F00BFFCBE089A96AA009F006FF23
:10BA3000C6E0632875D0642855D10CE06D2862D02B
:10BA400004DC662878D069284DD18DE0722827D093
:10BA5000742848D133E0601C18E03038C0B20BF0D5
:10BA600087FDC0B9207859493038C0B224310CF074
:10BA700053FA80B9FF2189A80BF08EFD58B989A926
:10BA800052480CF0FCFA6178601C21B1FFF7A2FF6C
:10BA90000DF55A7D70BDAFF2C300296848618FE093
:10BAA00020212046FCF7F3FB2C22C9A90EF022F836
:10BAB000022853D1DDE9C9010CF0E6FB2DE020227C
:10BAC000C9A920460EF016F8022847D1012268467F
:10BAD000CA990CF035FA002872D13BA009F0AEFEED
:10BAE00006E034E065E039E021463BA009F0A6FE1F
:10BAF0006A46042120460BF0DBFD0028F4D168469D
:10BB00000BF040FD5CE02022C9A920460DF0F2FFB9
:10BB1000022823D1CA980BF084FEF8B950E000E067
:10BB20000AE02022C9A920460DF0E4FF022815D121
:10BB3000CA980BF0F3FCF0E72022C9A920460DF0CB
:10BB4000D9FF02280AD1CA9800F064FEA0E720229B
:10BB5000C9A920460DF0CEFF022801D0012097E7A9
:10BB6000CA980CF064FCD8E7002118480CF060FB80
:10BB7000164D4FF6FF760DF24D34D1A913480CF057
:10BB800057FB2869E0B1288CB04201D0D79900E07A
:10BB9000214612A009F052FE9DF84C03C00603D5C1
:10BBA00010A009F04BFEE8E70FA0D19909F046FE7E
:10BBB000E3E729680D4848610020FEF7BBFC67E712
:10BBC000002065E7500100200D0A000090040020CD
:10BBD0003F3A3E0025733E00257300000D0A252DD7
:10BBE000313673002F0000002564000035A50008E1
:10BBF0002DE9F0430178ADF2944DE84F0126E84C71
:10BC00004FF0FF3802AD642974D011DC4FF47A692B
:10BC1000462964D007DC3F296DD0E24F44296BD020
:10BC200045296AD155E1502940D06329F9D12FE047
:10BC30006D297DD004DC692927D06C29F1D1B8E0C9
:10BC4000712976D07529ECD1202229460DF052FFBA
:10BC50000228E6D10BF0CAF8C820396809F0ACFD1B
:10BC60000398007866280AD0682802D0732805D186
:10BC700008E0CE48CC49016002F06EF88BE102F09A
:10BC800047F888E102F056F885E10020C8490BE04A
:10BC9000202229460DF02EFF0228EFD103980078CC
:10BCA0006E3801F09FFBC349086074E1002000F08A
:10BCB000F1FA044601462522BFA009F0BFFD0A2C77
:10BCC00005DD484609F092FD404600F0E3FAC1A0C8
:10BCD00009F0B4FD4FF4967009F088FD5BE1202275
:10BCE00029460DF007FF022808DA03200DF2944DD3
:10BCF000BDE8F08343E1B4E027E1C4E003984FF4EA
:10BD000080550078662820D0752801D00220EDE704
:10BD1000B2A009F093FD0520396809F04DFDB54842
:10BD20000CF0D6FC411CF6D07928A7D10AA901E075
:10BD3000BAE048E001200CF0EFF801212A4608465D
:10BD40000BF028FE002101202EE0ABA009F076FDCB
:10BD5000484609F04BFD0520396809F02DFDA5483E
:10BD60000CF0B6FC411CF6D0792887D1A8A009F0C8
:10BD700065FD00245FF0300606EBC40000F0A0FD76
:10BD8000082814D0A5A000BF09F058FD641C062C9B
:10BD9000F2DB97A900200CF0BFF82A460121002011
:10BDA0000BF0F8FD002108460CF0B6F8F3E09CA07B
:10BDB000EAE72C222946401C0DF09CFE014602A811
:10BDC00001F056FCE7E02C222946401C0DF092FEC3
:10BDD000F0B3944C3BE0414602980CF082FDD4F85D
:10BDE0000012884231D100258FA009F027FD0026DE
:10BDF000A819205CC043C1B28CA009F01FFD761CBD
:10BE0000102EF5DB0026A819205CC043C1B22139F1
:10BE10005E2904D2C1B26EA009F010FD02E080A03C
:10BE200009F00CFD761C102EEDDB1035B5F5007F0A
:10BE3000DADB804809F002FD386880476D480CF075
:10BE400047FC411CF8D01B2807D004F5017400E022
:10BE500004E0D4F80002401CBDD19CE004F08CF852
:10BE600099E02C222946401C0DF044FE012802D006
:10BE7000022810D007E0029840F6B8310078312847
:10BE800003D0322803D0012030E76B4800E06B4834
:10BE900003F0FEFF7FE00398FCF750FA0446029897
:10BEA000FCF74CFA2146F3E72C222946401C0DF002
:10BEB00021FE07460AE000BF55F82700FCF73EFACE
:10BEC00006FA00F12068C26B8A43C2637F1EF3D278
:10BED00061E02C222946401C0DF00CFE064631E0A4
:10BEE000206890F84000400722D555F826004146CA
:10BEF0000CF0F7FC2168896A084219D038680AF00A
:10BF000097FB814655F8260041460CF0EAFC0346B3
:10BF10004B48006842F2107190FBF1F201FB1201F4
:10BF20002068826A47A009F089FC48460AF080FB35
:10BF300055F8260041460CF0D4FC01462068826A80
:10BF40008A438262761ECBD225E02A492C22401CED
:10BF50000968396029460DF0CDFD07460CE000BFA9
:10BF6000002255F827001146FCF7B0F906FA00F157
:10BF70002068026C8A4302647F1EF1D20BE020220B
:10BF800029460DF0B7FD022805D10398FCF7D6F934
:10BF9000396809F011FC0020A8E600001C00002010
:10BFA000500000200C010020292B0108BC010020BA
:10BFB000E0000020D00000200D0A3E5061636B6954
:10BFC0006E6720736563746F72732E2E2E20256446
:10BFD0002563000020446F6E650000000D466F72FF
:10BFE0006D617420757362202E2E2E5B792F6E5D2D
:10BFF00000000000500100200D466F726D6174203A
:10C00000666C617368202E2E2E5B792F6E5D0000AA
:10C010002065726173696E67200000003F000000B8
:10C020002E000000000004080D0A000025303258E0
:10C030002000000084A6010818180020F8460020FF
:10C04000580100203A25303464206572726F7220E6
:10C05000253034582C253034582C20636C6561729F
:10C060000D0A3E002DE9F04F017889B00125754C8D
:10C070006E4669297ED007DC734F44297BD0452961
:10C0800043D0652904D11CE06D2905D077292DD036
:10C09000012009B0BDE8F08F2C223146401C0DF084
:10C0A00029FD07460AE000BF56F82700FCF746F9CD
:10C0B000216805FA00F0CA6B1043C8637F1EF3D2F3
:10C0C000BDE02C223146401C0DF014FD07460AE06D
:10C0D00056F82700FCF732F9216805FA00F011F84C
:10C0E0003A2F104308707F1EF2D2A8E02C2231466E
:10C0F000401C0DF0FFFC18B10098FCF71FF901E09F
:10C100004FF4967009F072FB99E02C223146401CE6
:10C110000DF0F0FC05464FF0FF3853E056F82500CF
:10C1200041460CF0DEFB45F2A811084207D0002181
:10C13000464804F004FF0021454804F000FF206851
:10C1400090F84000400733D556F8250041460CF0E2
:10C15000C8FB2168896A08422AD138680AF068FA5F
:10C16000834656F8250041460CF0BBFB0346DFF83A
:10C17000E49001E041E028E0D9F8001042F2107AA2
:10C1800091FBFAF220680AFB1211826A32A009F0D0
:10C1900055FBD9F80010206891FBFAF20AFB121146
:10C1A000B0F92C2034A009F049FB58460AF040FAB7
:10C1B00056F8250041460CF094FB01462068826A3F
:10C1C000114381626D1EA9D239E030492C22401CF6
:10C1D0000968396031460DF08DFC07460AE000BF62
:10C1E00056F82700FCF7AAF8216805FA00F00A6C57
:10C1F000104308647F1EF3D221E02C223146401CFC
:10C200000DF078FC224C20B1012806D0022816D16E
:10C2100009E04CF2503158200EE0022100980CF059
:10C2200060FB002108E00198FCF788F80546022130
:10C2300000980CF056FB294601F0AAF92060002076
:10C2400027E70000500000200C0100200000014002
:10C2500000040140580100203A2530346420657202
:10C26000726F7220253034582C253034582C2073AE
:10C2700065740D0A3E0000003A2530346420737462
:10C2800061747320253034580D0A3E00500100209F
:10C29000E00000202DE9F04F0025304CADF5017D88
:10C2A0008146AB464FF030084FF4003604F5017775
:10C2B000BA466D1C09F08EFAD4F8000202E000BF05
:10C2C00007F50177D7F80012884202D0491CF7D150
:10C2D00026E0481C24D00BF1010B2046204954468F
:10C2E0000844B04203DAD4F80002401CDED1B9F1B0
:10C2F000000F02D0404600F0E3FAD4F8000208F143
:10C300000808401C06F50036D0D1B9F1000F1ED048
:10C31000404600F0D5FA00200DF5017DBDE8F08F14
:10C3200000206A4654F82010C94342F82010401CEF
:10C330008028F7DB09F04EFAB9F1000FCDD00123C8
:10C3400069460020D4F8002203F052FDC5E76421BD
:10C350000BFB01F090FBF5F0DEE7000000000408A5
:10C360000402FCF72DE9F0474FF48044204600F02A
:10C370001DF921463B4800F0B7FB3F4C0028DFF891
:10C38000E8802068394DDFF8E890DFF8E8A0818D7B
:10C3900042F2107638D021F0800181850021484694
:10C3A00004F0CDFD0021504604F0C9FD206890F84E
:10C3B0004010490721D590F8280000061DD4D8F870
:10C3C00000000AF035F907462868802390FBF6F153
:10C3D00006FB11012068826A28A009F02FFA28685C
:10C3E00090FBF6F106FB11012068B0F92C202BA080
:10C3F00009F024FA38460AF01BF92068816A41F0F6
:10C4000080018162BDE8F08741F08001818590F86C
:10C41000401045F2A817490715D5806A384212D056
:10C42000D8F800000AF004F9804628683B4690FBE3
:10C43000F6F106FB11012068826A1DA009F0FEF9E1
:10C4400040460AF0F5F82068816AB943816201210B
:10C45000484604F074FD5046BDE8F047012104F061
:10C460006EBD0000000C02400C01002058010020AD
:10C470000000014000040140500000203A25303403
:10C4800064206572726F7220253034582C25303448
:10C49000582C207365740D0A3E0000003A25303494
:10C4A0006420737461747320253034580D0A3E0083
:10C4B0003A25303464206572726F7220253034580A
:10C4C0002C253034582C20636C6561720D0A3E00B7
:10C4D0002DE9F0414FF4807000F068F84FF480418E
:10C4E0001F4800F001FB002837D100211D4804F04F
:10C4F00026FD00211C4804F022FD1C4C206890F809
:10C500004010490724D590F82800800620D4184808
:10C5100000680AF08DF8174D0746286842F2107639
:10C5200090FBF6F106FB110120682023826A12A01D
:10C5300009F084F9286890FBF6F106FB11012068E8
:10C54000B0F92C2014A009F079F938460AF070F8F7
:10C550002068816A41F020018162BDE8F08100001D
:10C56000000C024000000140000401405000002087
:10C570000C010020580100203A25303464206572F7
:10C58000726F7220253034582C253034582C20738B
:10C5900065740D0A3E0000003A253034642073743F
:10C5A00061747320253034580D0A3E00014908603B
:10C5B00070470000143C014030B51A498379026885
:10C5C00053B30B6893430B600A1D13680468A343BD
:10C5D000136002790A441368046823431360114A04
:10C5E000083213680468A3431360131D1C680568B0
:10C5F000AC431C604479102C05D021440A680068C3
:10C6000002430A6030BD1168046821431160196853
:10C6100000680143196030BD007908440168914306
:10C62000016030BD003C01402DE9F05F6A490028FF
:10C6300076D0D1E91842D1E9039A8B46D1E9163177
:10C640004A26DFF898E100250EEB850CBCF802C005
:10C65000B4450ADD3EF92570ACEB090C0FFA8CFCF1
:10C6600007FB0CF7FB1841EBE7715D4F07EB850CFF
:10C67000BCF802C0B4450ADD37F92570ACEB0A0CF2
:10C680000FFA8CFC07FB0CF73C1942EBE77240F603
:10C69000B83705F10105BD42D6DB5D46C5E9163167
:10C6A000C5E91842DBF84460771CCBF84470B0F958
:10C6B0002070BE427ED190F82C60642706F00308FB
:10C6C00044F2B33C4FF47A76B8F1010F06D0B8F1DA
:10C6D000020F26D0B8F1030F46D14EE0B0F9382052
:10C6E000A2FB0308D41704FB038302FB013162465B
:10C6F0000023FBF763FD3C220023FBF75FFD0446AC
:10C7000002460023072137A0FDF79AF994FBF6F0C3
:10C7100006FB104090FBF7F294FBF6F133A021E00A
:10C7200051E0B0F93810A1FB0408CB1703FB0483D8
:10C7300001FB023162460023FBF740FD3C2200234F
:10C74000FBF73CFD044602460023072125A0FDF728
:10C7500077F994FBF6F006FB104090FBF7F294FBA0
:10C76000F6F125A00AF00EFB00206864C5E9180068
:10C77000C5E91600401EBDE8F09F1B195141B0F9F4
:10C780003820A3FB020801FB0281D41703FB04112C
:10C7900062460023FBF712FD3C220023FBF70EFD4F
:10C7A00004460246002307210EA0FDF749F994FB39
:10C7B000F6F000E00DE006FB104090FBF7F294FB72
:10C7C000F6F110A0CEE700204864C1E91800C1E9E5
:10C7D00016000020CFE700000000002018180020FD
:10C7E000F8460020636963500000000045313D2594
:10C7F000642E25644A00000045323D25642E2564E0
:10C800004A00000045312B45323D25642E25644AFF
:10C810000000000070B5204C0646204D206848B14D
:10C8200046B33178042929D032461DA108F0F8FF1B
:10C83000002070BD4FF409710120FBF739FD206025
:10C8400028B1132231460BF07BFB10B106E0062025
:10C8500070BD2068C1680AF04DFF20B120680BF060
:10C86000E3FF052070BD10A1206808F0D9FFAFF2EA
:10C870005B000EE00DA008F0E1FFD9E70BF08BFDA7
:10C8800020680AF07FFE20680BF0CEFF00202060B9
:10C89000074829684861CBE7A0000020500100202C
:10C8A00025730D0A000000000D0000000D0A0000B5
:10C8B000D5B9000801490860704700000C3C0240EF
:10C8C00010B5044600F08EF8F320FFF7F3FF00BF29
:10C8D00008F080FF0221204600F004F80128F7D07C
:10C8E00010BD000070B50646002529B1012927D0EA
:10C8F000022928D04FF4407500F086F808281ED190
:10C90000124C206820F4407020602068284320608A
:10C91000206820F0F8002060206846F002010843FB
:10C920002060206840F48030206000F06DF82168BD
:10C9300021F002012160216821F0F801216070BD21
:10C940004FF48075D8E74FF40075D5E7103C0240EE
:10C950000B4908200A68D20301D5012070470A68F4
:10C96000D20601D5052070470A6812F0EF0F01D0FA
:10C970000620704709688907FBD50720704700002B
:10C980000C3C024070B50C46054600F02BF8F32035
:10C99000FFF790FF08F01EFF2146284600F004F83C
:10C9A0000128F7D070BD000070B50D46064600F0B6
:10C9B0002BF8082813D10A4C206820F4407020601E
:10C9C000206840F400702060206840F00100206082
:10C9D000356000F019F8216821F00101216070BD77
:10C9E000103C024005480068002805DA0348044965
:10C9F0000C3801600349016070470000103C0240A0
:10CA000023016745AB89EFCD08B508208DF80000FC
:10CA1000FFF79EFF8DF800009DF800000128F7D079
:10CA20009DF8000008BDF0B50023012403270D6820
:10CA300004FA03F21540954242D1D0F800C05E00DE
:10CA400007FA06F52CEA050CC0F800C091F804C0FE
:10CA5000D0F800E00CFA06FC4CEA0E0CC0F800C05E
:10CA600091F804C0BCF1010F02D0BCF1020F1FD13C
:10CA7000D0F808C02CEA050CC0F808C091F805C031
:10CA8000D0F808E00CFA06FC4CEA0E0CC0F808C01E
:10CA9000D0F804C02CEA020CC0F804C0426891F837
:10CAA00006C00CFA03FC1FFA8CFC42EA0C0242603E
:10CAB000C268AA43C260CA79C568B2402A43C2604C
:10CAC0005B1C102BB3D3F0BD4B07DB0E9A40C9089B
:10CAD00010B500EB8100016A0F249C40A143016264
:10CAE000016A1143016210BD0246002012690A4228
:10CAF00000D0012070470246002052690A4200D04F
:10CB00000120704741837047018370474FF6FF71E2
:10CB100001600021017141718171C17170474069EB
:10CB2000806880B27047D0F8CC000068C0F3414004
:10CB30007047084490F87F08704700EB8100D0F8F8
:10CB40003408704710B5044600221046C4F8F42794
:10CB500004EB8203C3F8F807C3F83408A31883F87A
:10CB60007008521CD2B20F2AF2D30820A4F89608FB
:10CB7000204607F0EDFD204607F004FA204607F0B6
:10CB8000A9F80121204607F043FE204607F07AF974
:10CB9000204607F0D6FB002010BDD0F8F407704700
:10CBA00010B507F0C0FD002010BD0022431883F827
:10CBB0007F2800EB4113C3F8A42807F0DFBC000076
:10CBC000F0B416490A78012A09D0CA680025802ADB
:10CBD00000D1CD60D1E902329A4202D10D70F0BC91
:10CBE000704702D9C2F1800301E0A3EB02031C46A7
:10CBF0000B61402B96B205D940234032403CC1E93D
:10CC0000032403E02244C1E90325A3B201220A70F0
:10CC100003498A19F0BC8121FDF7D8B8040300202C
:10CC2000B09F00200748006809F002FD0648006830
:10CC300042F2107190FBF1F201FB120103A008F027
:10CC4000FDFDFEE708010020580100203A253034A0
:10CC50006420486172644661756C745F48616E64FB
:10CC60006C65720D0A3E000010B51421054800F0F5
:10CC700057F9000A04D0034814300188C9B2018072
:10CC800010BD0000005400402DE9F041414D284600
:10CC900000F0DAF8404A0026811A404C4FF4C06791
:10CCA000904234D02FDC6FF4403140183FD001283F
:10CCB00062D03F2825D1284600F037F90246D4E952
:10CCC00002010B18401C1A73A060C988491E8142DA
:10CCD00007D10021284600F06DF80121284600F018
:10CCE000A9F8E068A168C08888420AD100223946C4
:10CCF000284600F0B0F80121284600F05BF8E06813
:10CD0000C680BDE8F081022922D00429F9D1E1686A
:10CD1000A0688A8882421DD18E80C8884FF00101A8
:10CD2000002828461FD0BDE8F04100F079B8E0683F
:10CD30008188007800294FEA40604FEA106101D0F5
:10CD4000002200E00122284600F0F2F8A660D8E7B1
:10CD5000D4E902010144401C097AA0602846BDE8DC
:10CD6000F04100F0EDB800F065F839462846BDE81E
:10CD7000F041002200F06FB8E068C0880128C0D1FF
:10CD80000021284600F016F82846BDE8F0410121B0
:10CD900000F050B80054004080000700D40000208C
:10CDA0000029018802D041F0100101E021F01001BA
:10CDB000018070470029018802D041F4806101E0C0
:10CDC00021F48061018070470029018802D041F080
:10CDD000010101E021F00101018070470D4910B50A
:10CDE000884202D101214C050AE00B49884202D158
:10CDF00001218C0504E0094988420AD10121CC05B2
:10CE0000204602F0E9FB2046BDE81040002102F078
:10CE1000E3BB10BD0054004000580040005C0040DF
:10CE20000029018802D041F4807101E021F4807171
:10CE3000018070470029018802D041F4007101E0AF
:10CE400021F4007101807047818A008B41EA004122
:10CE500021F07F407047002A828801D00A4300E019
:10CE60008A438280704700007FB5044680880D4663
:10CE700020F03F06684602F0DBFB27490298B0FB32
:10CE8000F1F189B20E43A680228822F001022280AD
:10CE9000224B2A689A421BD85200B0FBF2F080B2B3
:10CEA000042800D20420491C2184A083208840F05B
:10CEB0000100208021884FF6F5300140A8886A895A
:10CEC000104308432080A8892989084320817FBD19
:10CED000EB88A3F53F46FF3E0BD002EBC20303EB0A
:10CEE0000212B0FBF2F080B240F48040020506D09E
:10CEF00007E002EB4202B0FBF2F080B2F6E740F04E
:10CF000001004FF4967251434FF47A72B1FBF2F183
:10CF100040F40040C7E7000040420F00A086010037
:10CF200008B508440090008808BD008AC0B2704768
:10CF300012B141F0010101E001F0FE0101827047F0
:10CF4000018270470029018802D041F4004101E0CC
:10CF5000C1F30E01018070470029018803D021F040
:10CF600080010180704741F08001FAE741F2883189
:10CF70000160002181804BF6FF72C28001814181F6
:10CF80004FF480418181704702494CF6CC400860E3
:10CF90007047000000300040034A01460020D2687C
:10CFA0000A4200D0012070470030004002494AF692
:10CFB000AA20086070470000003000400149486026
:10CFC0007047000000300040014988607047000051
:10CFD0000030004001490860704700000030004008
:10CFE00070B5284C284A208802F1100108F07EFC18
:10CFF000254A0546608802F1100108F077FC854259
:10D0000001DD208800E060881F4A02F1100108F06D
:10D010006DFC1E490546C8228868854201DA086809
:10D020000CE0CB689D4201DD486807E042C92C1A3C
:10D03000761A7443181A94FBF0F0084440F6B8319D
:10D04000484390FBF2F4052C05DBB4F5BB6F03DB22
:10D0500040F2D75400E005240D4E304604F02EF87F
:10D06000A042304603D204F029F8401C02E004F04C
:10D0700025F8401E0146304604F0D8F9642095FB9F
:10D08000F0F070BDE8170020689F01087C000020C8
:10D09000000400401FB501214FF4E06002F0A8FA3F
:10D0A0006846FCF737F8002000900190029003904A
:10D0B0006846FCF719F800F005F800F07BF800F07E
:10D0C000F3F81FBDF0B5012197B0880502F060FAB2
:10D0D00033480024CDE90040324802A9022681E805
:10D0E00051007002CDE90540400007908000089093
:10D0F0004011099040020A9001250420CDE90C540A
:10D10000294F0B90694638460E94FDF7CFF901215F
:10D110003846FDF7BDF815A8FFF7F8FC03208DF899
:10D12000580015908DF85B4015A92048FFF77BFC4F
:10D130000FA8FCF77EF9280711904FF06060CDE949
:10D1400012040F94164C8DF840504C3C8DF8415011
:10D150008DF850600FA92046FCF706F90023012244
:10D1600009212046FCF726F9002302220821204647
:10D17000FCF720F908212046FBF79EFF0C492046CA
:10D18000FBF792FF01212046FBF7D4FF0121204647
:10D19000FBF79FFF01212046FBF7C2FF17B0F0BD50
:10D1A0004C200140C800002070640240000402408E
:10D1B00000028000F0B5012197B0880502F0E8F97F
:10D1C0004FF00070009033480190334802A90226C6
:10D1D000002481E851007002CDE90540400007902D
:10D1E000800008904011099040020A900125042017
:10D1F000CDE90C54294F0B90694638460E94FDF743
:10D2000055F901213846FDF743F815A8FFF77EFCD4
:10D210003020159003208DF858008DF85B4015A93B
:10D220001F48FFF700FC0FA8FCF703F90F9428072D
:10D230001190184C4FF060608DF8405012904C3CAB
:10D240008DF841508DF850600FA92046FCF78CF8FE
:10D25000002301220F212046FCF7ACF80023022214
:10D260000E212046FCF7A6F80E212046FBF724FFEE
:10D270000C492046FBF718FF01212046FBF75AFF17
:10D2800001212046FBF725FF01212046FBF748FF3F
:10D2900017B0F0BD4C210140CC0000205864024082
:10D2A000000802400002800070B598B00121464895
:10D2B00002F06EF901218D02284602F099F9280446
:10D2C00000904248019042480024CDE9020404A99C
:10D2D000182081E831006800079080000890401114
:10D2E000099040020A9001250420CDE90C54394EE2
:10D2F0000B90694630460E94FDF7D8F80121304670
:10D30000FCF7C6FF15A8FFF701FC03208DF85800B5
:10D31000072015908DF85B4015A92F48FFF783FB78
:10D320000E20159015A92D48FFF77DFB0F94119441
:10D330001394264C06208DF840508DF850004C3C3C
:10D340008DF841500FA92046FCF70EF8002301226A
:10D3500019462046FCF72EF8002302220121204620
:10D36000FCF728F80023032202212046FCF722F8CC
:10D37000002304220B212046FCF71CF80023052281
:10D380000C212046FCF716F8002306220D2120462A
:10D39000FCF710F80B212046FBF78EFE10492046C3
:10D3A000FBF782FE01212046FBF7C4FE0121204647
:10D3B000FBF7B6FE01212046FBF78BFE2046FCF76B
:10D3C00033F818B070BD0000040040004C2201404A
:10D3D000E8170020106402400000024000080240EC
:10D3E00000028000F0B589B0074607A8FFF78EFB62
:10D3F00002208DF820002020464D012407908DF852
:10D40000234007A92846FFF70EFB600307908DF81D
:10D41000224007A92846FFF706FB092205212846D6
:10D42000FFF752FB09220D212846FFF74DFB012192
:10D43000480602F0C5F80121880602F0C1F804A8E8
:10D44000FCF788FA344E3046FCF744F900258DF895
:10D4500018508DF819408DF816508DF81A508DF827
:10D4600017408DF81B4017B18DF8124001E08DF880
:10D470001250092103208DF814108DF813008DF837
:10D4800015000420ADF8100004A93046FCF7A6F9F9
:10D49000ADF802504FF48060ADF80000ADF80650D2
:10D4A0004FF48C608DF80B40ADF80400ADF80850D7
:10D4B0000E208DF80C408DF80A008DF80D4068465E
:10D4C000FCF71EF94FF4B050ADF800004FF4B15026
:10D4D000ADF804000F208DF80A006846FCF710F93B
:10D4E0004FF45070ADF800004FF46660ADF80400E2
:10D4F00010208DF80A006846FCF702F9012202218B
:10D500003046FCF763F94FF4FA60014608F03EFC40
:10D5100009B0F0BD000402400068004000B587B0CB
:10D5200004A8FFF7F3FA6846FCF7A8FB03208DF880
:10D5300014003020049001208DF8170004A913482E
:10D54000FFF771FA0121480702F03AF8FCF74EFBA9
:10D550000020019069460390FCF76EFB694610209D
:10D56000FCF76AFB40F699510A460020FCF778FB6D
:10D570000120FCF747FB01210020FCF72BFB0121D8
:10D580001020FCF727FB07B000BD000000000240A0
:10D5900070B50C46054686B010210120FAF788FECA
:10D5A000064605B1358004B1748004A8FFF7AEFAD1
:10D5B00002208DF815008DF8140001208DF816005A
:10D5C0008DF81700C020284D049004A92846FFF7C5
:10D5D0002AFA042206212846FFF776FA04220721B8
:10D5E0002846FFF771FA01214D05284601F0E8FFB2
:10D5F0000121284601F0F0FF0021284601F0ECFF50
:10D600001A4D2846FFF7EAFB6846FFF7AFFC0A20F1
:10D61000ADF804004BF6FF70ADF806000020ADF841
:10D6200008002815ADF80A000001ADF80C006946A5
:10D6300028460094FFF718FC01212846FFF78CFCD0
:10D6400001212846FFF7ACFB01212846FFF7B2FB7A
:10D6500001212846FFF7B8FB012211022846FFF7F7
:10D66000FAFB06B0304670BD000402400054004092
:10D670002DE9FC4706460F466846FFF747FA4FF08C
:10D6800001098DF804908DF8069017B10024244DFF
:10D6900033E008F0D5FBBDE8FC8700BF56F8240056
:10D6A00000786138092839D2DFE800F005072A2C14
:10D6B0002E30323436001B4800E01B4845F8240069
:10D6C00056F82400401C46F82400FAF737FEDFF82D
:10D6D000508009FA00F008F1280801B228F8141067
:10D6E000009155F824006946FFF79DF938F81410A9
:10D6F00055F82400FFF708FA641CBC42CEDBCAE7E9
:10D700000A48DBE70A48D9E70A48D7E70A48D5E7D5
:10D710000A48D3E70A48D1E70A48CFE70020CDE717
:10D7200090810020000002400004024000080240F6
:10D73000000C024000100240001402400018024099
:10D74000001C02400020024038B54FF4C06000F0D9
:10D75000B1FC01208DF8010003248DF802408DF802
:10D76000030019208DF80000684600F071FC0220CB
:10D770008DF801003C208DF80000684600F068FC40
:10D780001F208DF80000684600F062FC20208DF814
:10D790000000684600F05CFC8DF8014014208DF814
:10D7A0000000684600F054FC40208DF800006846F8
:10D7B00000F04EFC1D208DF80000684600F048FC8B
:10D7C00028208DF80000684600F042FC17208DF8F4
:10D7D0000000684600F03CFC12208DF8000068460E
:10D7E00000F036FC1E208DF80000684600F030FC8A
:10D7F00025208DF80000684600F02AFC38BD0000A6
:10D800002DE9F04F9FB014A8FFF780F90225FC4FD7
:10D810008DF854504FF003088DF855802A460621A4
:10D820003846FFF751F9022207213846FFF74CF935
:10D830000124C0208DF85740002614908DF85660C2
:10D8400014A93846FFF7EFF84FF44050ED4F8DF82C
:10D85000544014908DF8566014A93846FFF7E3F849
:10D860004FF4805949463846FFF745F910B9E6A00C
:10D8700009F030FA49463846FFF746F94FF40059A7
:10D8800049463846FFF737F910B9E4A009F022FA03
:10D890004946BA463846FFF737F901218F03384623
:10D8A00001F0A6FE8DF8546000208DF8570014A9F1
:10D8B00050461497FFF7B7F80E21032002F0D0FA74
:10D8C0003846FEF773FE00208DF8680010208DF8B2
:10D8D000690019978DF86A4019A8FEF76DFE0020BF
:10D8E000BE118DF85400D24F8DF8574014A9384618
:10D8F0001496FFF798F80821042002F0B1FA304698
:10D90000FEF754FE00208DF8680008208DF86900AD
:10D9100019968DF86A4019A8FEF74EFE14A8FFF775
:10D92000F5F88DF857508DF8545000208DF85600BA
:10D930008DF85580012209213846FFF7C5F80122EC
:10D940000B213846FFF7C0F801220D213846FFF7BA
:10D95000BBF801220E213846FFF7B6F84FF4D44049
:10D96000149014A93846FFF75EF8B24F032206213F
:10D970003846FFF7A9F8032207213846FFF7A4F835
:10D98000032208213846FFF79FF803220921384671
:10D99000FFF79AF84FF47070149014A93846FFF707
:10D9A00042F86846FCF7B3FD0121880501F0F0FD5F
:10D9B000DFF884A25046FCF7C9FCA0480290402042
:10D9C00040F2DC57CDE903070020099070020A906D
:10D9D00000204FF48068CDE90508F000CDE9070983
:10D9E0000020CDE90C400E904FF040604FF004094C
:10D9F0000090CDF82C909248019069465046FCF773
:10DA000055FD4FF0606000908E4801908A4869464D
:10DA10006038FCF74BFD16A803F072FD0FA803F069
:10DA2000D3FC0020ADF85800DFF814B22020ADF888
:10DA30005A004FF4167AABF14C0B8DF86240584601
:10DA4000CDF85CA003F092FA0121084601F0D0FD68
:10DA500016A9584603F016FD7A484C3803F086FAAA
:10DA60000121022001F0C4FD764816A94C3803F0CC
:10DA700009FD0021584603F0DBFC72484FF4967113
:10DA80004C3803F0D5FC17976F4F384603F06EFA09
:10DA90000121022001F094FD16A9384603F0F2FCA2
:10DAA000ADF83E406020ADF83C0000201190ADF88C
:10DAB00048000FA9584603F075FB62480FA94C387F
:10DAC00003F070FB0FA9584603F0F6FB5D480FA961
:10DAD0004C3803F0F1FBCDF844A0ADF848500FA945
